:100000000C94F3150C941B160C941B160C941B16D5
:100010000C941B160C941B160C941B160C941B169C
:100020000C941B160C941B160C94DC250C944B267C
:100030000C941B160C941B160C941B160C941B167C
:100040000C941B160C941B160C941B160C941B166C
:100050000C941B160C941B160C941B160C947D28E8
:100060000C941B160C941B160C941B160C941B164C
:100070000C941B160C941B160C941B160C941B163C
:100080000C941B160C941B160C941B160C941B162C
:100090000C941B160C941B160C941B160C941B161C
:1000A0000C941B160C941B160C941B1605A84CCD17
:1000B000B2D44EB93836A9020C50B9918688083CA2
:1000C000A6AAAA2ABE000000803FFFFFFFFFFF3F55
:1000D0003F3F3F3F3F7FFFFFFFE0FFFFFF7F3F00CE
:1000E00000003F3F3F3F3F000000FFFFFFFFFFC01A
:1000F000E0C0FFFFFFFFFF3F3F3F3F1F0F070F1F06
:100100003F3F3F3FFFFFFFFFFFFFFFFFFFFF0307F3
:100110000F1F3F3F1F0F0703FFFFFFFFFFFFFFFF03
:10012000FFFF070F1F3F3F3F3F1F0F071F1F1FFF0F
:10013000FFFFFFFF1F1F1F0000003F3F3F3F3F002B
:100140000000387CFEFFFFFFFFFEBC38070F1F3F9B
:100150003F3F3F1F0F07FFFFFFFFFFFFFFFE7C3802
:100160003F3F3F3F3F3F3F3F3F3EF8FCFEFFFFFF2B
:10017000FFFEFCF8070F1F3F3F3F3F1F0F07FFFF2A
:10018000FFFFFFFCFFFFFFFFFF3F3F3F3F3F003F01
:100190003F3F3F3FFFFFFFFFFEFCF8FCFEFFFFFF7E
:1001A000FF3F3F3F3F3F0001003F3F3F3F3FFFFFDB
:1001B000FFFFFF00000000003F3F3F3F3F3E3E3E4D
:1001C0003E3EFCFEFFFFFFFFFFFFFEFC0F1F3F3F19
:1001D0003F3F3F3F1F0FFFFFFFFFFFFFFFFF1F1FBF
:1001E0003F3F3F3F3F3F3F3F3E3EFFFFFFFFFF1F81
:1001F000FFFFFEFCF83F3F3F3F3F3E3F3F1F0F07E3
:10020000F0F8FCFEFFFFFEFCF8F03F3F3F3F3F3FB2
:100210003F3F3F3F051000FEFEFE00001D1D1D007C
:100220000B10003E7EFEE0C0E0FE7E3E00000000BF
:10023000001F1F1F000000000D1000FEFEFE0080CA
:10024000C08000FEFEFE00001F1F1F0F0703070FE8
:100250001F1F1F000A1000FEFEFE0000FEFEFE0033
:100260000003070F1E1E0F0703000A1000FEFEFE0C
:100270000000FEFEFE0000070F1F1C1C1F0F0700E2
:100280000B10000E0E0EFEFEFE0E0E0E0000000005
:10029000001F1F1F000000000A1000387CFECECE99
:1002A000DE9C180000060E1E1C1C1F0F07000A1003
:1002B00000FEFEFEEEEEFE7C3800001F1F1F010355
:1002C0001F1F1E000A1000F8FCFE0E0EFEFCF800B8
:1002D00000070F1F1C1C1F0F07000B1000FEFEFE67
:1002E0003C78F0FEFEFE00001F1F1F0000001F1FD5
:1002F0001F000D1000FEFEFE3C78F0783CFEFEFE76
:1003000000001F1F1F00000000001F1F1F000A1019
:1003100000FEFEFE000000000000001F1F1F1C1C4E
:100320001C1C1C000A1000F8FCFE0ECEDEDCD800FF
:1003300000070F1F1C1D1F0F07000A1000FEFEFE06
:10034000EEEEEE0E0E00001F1F1F1C1C1C1C1C00DE
:100350000B1000FEFEFE0E0E1EFEFCF800001F1F1E
:100360001F1C1C1E1F0F07000A1000F0F8FC9E9EA9
:10037000FCF8F000001F1F1F03031F1F1F000000D9
:100380000000003E5B4F5B3E3E6B4F6B3E1C3E7C75
:100390003E1C183C7E3C181C577D571C1C5E7F5E23
:1003A0001C00183C1800FFE7C3E7FF0018241800E2
:1003B000FFE7DBE7FF30483A060E26297929264079
:1003C0007F050507407F05253F5A3CE73C5A7F3EA5
:1003D0001C1C08081C1C3E7F14227F22145F5F0037
:1003E0005F5F06097F017F006689956A60606060D3
:1003F0006094A2FFA29408047E040810207E2010BE
:1004000008082A1C08081C2A08081E101010100CC6
:100410001E0C1E0C30383E3830060E3E0E06000014
:1004200000000000005F00000007000700147F14B8
:100430007F14242A7F2A1223130864623649562027
:10044000500008070300001C2241000041221C004C
:100450002A1C7F1C2A08083E08080080703000080B
:1004600008080808000060600020100804023E51DF
:1004700049453E00427F4000724949494621414971
:100480004D331814127F1027454545393C4A4949D8
:100490003141211109073649494936464949291E42
:1004A0000000140000004034000000081422411431
:1004B00014141414004122140802015909063E4183
:1004C0005D594E7C1211127C7F494949363E4141AB
:1004D00041227F4141413E7F494949417F09090904
:1004E000013E414151737F0808087F00417F410070
:1004F0002040413F017F081422417F404040407F1F
:10050000021C027F7F0408107F3E4141413E7F096B
:100510000909063E4151215E7F09192946264949AC
:10052000493203017F01033F4040403F1F204020EC
:100530001F3F4038403F63140814630304780403EA
:100540006159494D43007F41414102040810200098
:100550004141417F04020102044040404040000309
:1005600007080020545478407F28444438384444D5
:100570004428384444287F385454541800087E09CD
:100580000218A4A49C787F0804047800447D4000ED
:100590002040403D007F1028440000417F40007C07
:1005A000047804787C080404783844444438FC18FF
:1005B00024241818242418FC7C08040408485454E3
:1005C000542404043F44243C4040207C1C20402010
:1005D0001C3C4030403C44281028444C9090907C77
:1005E0004464544C44000836410000007700000089
:1005F0004136080002010204023C2623263C1EA1CB
:10060000A161123A4040207A385454555921555529
:1006100079412154547841215554784020545579DA
:10062000400C1E527212395555555939545454596B
:1006300039555454580000457C410002457D420024
:1006400001457C40F0292429F0F0282528F07C542D
:100650005545002054547C547C0A097F493249494D
:1006600049323248484832324A4848303A414121BA
:100670007A3A42402078009DA0A07D394444443914
:100680003D4040403D3C24FF2424487E4943662BA6
:100690002FFC2F2BFF0929F620C0887E0903205448
:1006A0005479410000447D413048484A3238404046
:1006B000227A007A0A0A727D0D19317D2629292FA6
:1006C00028262929292630484D40203808080808BE
:1006D00008080808382F10C8ACBA2F102834FA00C0
:1006E000007B000008142A142222142A1408950002
:1006F000220095AA005500AAAA55AA55AA000000F2
:10070000FF00101010FF00141414FF001010FF0061
:10071000FF1010F010F0141414FC001414F700FF74
:100720000000FF00FF1414F404FC141417101F1031
:10073000101F101F1414141F00101010F0000000E0
:10074000001F101010101F10101010F010000000EB
:10075000FF101010101010101010FF10000000FFFC
:10076000140000FF00FF00001F10170000FC04F43D
:1007700014141710171414F404F40000FF00F714F5
:10078000141414141414F700F7141414171410107C
:100790001F101F141414F4141010F010F000001F98
:1007A000101F0000001F14000000FC140000F010D7
:1007B000F01010FF10FF141414FF141010101F007D
:1007C000000000F010FFFFFFFFFFF0F0F0F0F0FF7F
:1007D000FFFF0000000000FFFF0F0F0F0F0F384456
:1007E0004438447C2A2A3E147E02020606027E0217
:1007F0007E0263554941633844443C04407E201ED8
:100800002006027E020299A5E7A5991C2A492A1C06
:100810004C7201724C304A4D4D303048784830BCF3
:10082000625A463D3E494949007E0101017E2A2A1D
:100830002A2A2A44445F444440514A444040444A9E
:1008400051400000FF0103E080FF000008086B6BCF
:10085000083612362436060F090F06000018180055
:1008600000001010003040FF0101001F01011E00B8
:10087000191D1712003C3C3C3C0000000000D5F064
:100880008D14A1C881CFD9F1AF20001D1000000048
:10089000808080008080801F918E801F859B801FBC
:1008A000859F801F081F008080970000000F0203B3
:1008B000000F020D000F0A08000B0A0E000B0A0EB3
:1008C000000000000F020F1F10031C03001F919F68
:1008D000801F909F80009F9090009F919F00979510
:1008E0009D00011F0180809700000000000F02039F
:1008F000000F020D000F0A08000B0A0E000B0A0E73
:10090000000000000F020F1F100000031C03809F57
:10091000911F809F901F8080801F889F801F919FC4
:10092000801F011F0080809700000000000F02035D
:10093000000F020D000F0A08000B0A0E000B0A0E32
:10094000000000000F020F1210101038387C7CFEDF
:10095000FEFFFFFEFE7C7C38381010000000000017
:100960000000000101000000000000000000000085
:10097000000000000000000000008080C0C0E0E037
:10098000F0F0F8F8FCFCFEFEFCFCF8F8F0F0E0E01B
:10099000C0C08080000000000000000000000000D7
:1009A0000040E0E0F0F0F8F8FCFCFEFEFFFFFFFF87
:1009B000FFFFFFFFFFFFFFFFFFFFFFFFFFFFFFFF47
:1009C000FFFFFFFFFFFFFFFFFFFFFEFEFCFCF8F84D
:1009D000F0F0E0E0400000000101030307070F0F03
:1009E0001F1F3F3F3F7F7FFFFFFFFFFFFFFFFFFF17
:1009F000FFFFFFFFFFFFFF7F7F3F3F3F1F1F0F0FE7
:100A000007070303010100000000000000000000D0
:100A100000000000000000000000000000010103D1
:100A2000030707070703030101000000000000009F
:100A30000000000000000000000000000034200062
:100A40000000000000000000000000008080404026
:100A500020205050888804040202040488885050E2
:100A600020204040808000000000000000000000C6
:100A70000000000020205050888804040202050570
:100A800088885050202050508888050502020505AE
:100A900088885050202050508888050502020404A0
:100AA0008888505020200000000000000000010154
:100AB00002020505080810102020505088880505FE
:100AC00002020505888850502020101008080505EE
:100AD0000202010100000000000000000000000010
:100AE0000000000000000000000000000000000006
:100AF00000000101020201010000000000000000EE
:100B000000000000000000000000000000000003E2
:100B100027C11131CB003AD51643DF1A53E9061825
:100B20009F0021A40C2A9A04369A0E4390154C95E6
:100B300004559F115EA90327C61131D0003ADA1679
:100B400043E41A53EE06189F0021A40C2A9A043697
:100B50009A0E4390154C9A0455A4115EAE0327CB10
:100B60001131D5003ADF1643E91A53F306189F00F6
:100B700021A40C2A9A04369A0E4395154C9F0455CD
:100B8000A9115EB30327D01131DA003AE41643EE1F
:100B90001A53F806189F0021A40C2A9A04369A0EBC
:100BA000439A154CA40455AE115EB80327D51131F4
:100BB000DF003AE91643F31A53FD06189F0021A4FB
:100BC0000C2A9A04369A0E439F154CA90455B3116A
:100BD0005EBD0327DA1131E4003AEE1643F81A53EA
:100BE0000206189F0021A40C2A9A04369A0E43A4E8
:100BF000154CAE0455B8115EC20327DF1131E90070
:100C00003AF31643FD1A530706189F0021A40C2A35
:100C10009A04369F0E43A9154CB30455BD115EC707
:100C20000327E41131EE003AF81643021A530C067A
:100C3000189F0021A40C2A9A0436A40E43AE154C2A
:100C4000B80455C2115ECC0327E91131F3003AFD17
:100C50001643071A531106189F0021A40C2A9F045B
:100C600036A90E43B3154CBD0455C7115ED10327F9
:100C7000EE1131F8003A0216430C1A531606189F6B
:100C80000021A40C2AA40436AE0E43B8154CC204AD
:100C900055CC115ED60327F31131FD003A071643F8
:100CA000111A531B06189F0021A40C2AA90436B35D
:100CB0000E43BD154CC70455D1115EDB0327F81157
:100CC0003102003A0C1643161A532006189F0021D1
:100CD000A40C2AAE0436B80E43C2154CCC0455D62B
:100CE000115EE00327FD113107003A1116431B1A6C
:100CF000531D06189F0021A90C2AB30436BD0E43CC
:100D0000C7154CD10455DB115EE503270211310CE8
:100D1000003A161643201A531B0618A40021AE0CE5
:100D20002AB80436C20E43CC154CD60455E0115EE9
:100D3000EA032707113111003A1B16431D1A531AF3
:100D40000618A90021B30C2ABD0436C70E43D115DD
:100D50004CDB0455E5115EEF03270C113116003A08
:100D60002016431B1A531A0618AE0021B80C2AC2CB
:100D70000436CC0E43D6154CE00455EA115EF4035C
:100D8000271111311B003A1D16431A1A531B06185E
:100D9000B30021BD0C2AC70436D10E43DB154CE548
:100DA0000455EF115EF9032716113120003A1B1686
:100DB000431A1A531D0618B80021C20C2ACC043657
:100DC000D60E43E0154CEA0455F4115EFE03271BD2
:100DD00011311D003A1A16431B1A53200618BD0084
:100DE00021C70C2AD10436DB0E43E5154CEF045520
:100DF000F9115E0303272011311B003A1A16431D17
:100E00001A531F0618C20021CC0C2AD60436E00E55
:100E100043EA154CF40455FE115E0803271D1131F9
:100E20001A003A1B1643201A53200618C70021D176
:100E30000C2ADB0436E50E43EF154CF9045503117B
:100E40005E0D03271B11311A003A1D16431F1A535A
:100E5000200618CC0021D60C2AE00436EA0E43F412
:100E6000154CFE045508115E1203271A11311B00A0
:100E70003A201643201A53200618D10021DB0C2AF1
:100E8000E50436EF0E43F9154C0304550D115E0FC2
:100E900003271A11311D003A1F1643201A5320064A
:100EA00018D60021E00C2AEA0436F40E43FE154C55
:100EB00008045512115E0D03271B113120003A2042
:100EC0001643201A53200618DB0021E50C2AEF04F4
:100ED00036F90E4303154C0D04550F115E0C032714
:100EE0001D11311F003A201643201A53200618E026
:100EF0000021EA0C2AF40436FE0E4308154C1204B5
:100F0000550D115E0C032720113120003A201643A5
:100F1000201A53200618E50021EF0C2AF9043603A5
:100F20000E430D154C0F04550C115E0D03271F11B8
:100F30003120003A201643201A53200618EA0021D7
:100F4000F40C2AFE0436080E4312154C0D04550C01
:100F5000115E0F032720113120003A201643201A7A
:100F600053200618EF0021F90C2A0304360D0E4316
:100F70000F154C0C04550D115E1203272011312062
:100F8000003A201643201A53200618F40021FE0CC4
:100F90002A080436120E430D154C0C04550F115E31
:100FA00011032720113120003A201643201A532024
:100FB0000618F90021030C2A0D04360F0E430C15F8
:100FC0004C0D045512115E12032720113120003AF6
:100FD000201643201A53200618FE0021080C2A125E
:100FE00004360D0E430C154C0F045511115E1203FF
:100FF0002720113120003A201643201A53200618CA
:101000000300210D0C2A0F04360C0E430D154C1253
:10101000045512115E12032720113120003A2016C8
:1010200043201A53200618080021120C2A0D0436FA
:101030000C0E430F154C11045512115E120327209C
:10104000113120003A201643201A532006180D00B3
:10105000210F0C2A0C04360D0E4312154C120455A8
:1010600012115E12032720113120003A201643206E
:101070001A532006181200210D0C2A0C04360F0EEC
:101080004311154C12045512115E12032720113121
:1010900020003A201643201A532006180F00210C76
:1010A0000C2A0D0436120E4312154C12045512115F
:1010B0005E12032720113120003A201643201A53D4
:1010C0002006180D00210C0C2A0F0436110E4312B5
:1010D000154C12045512115E120327201131200005
:1010E0003A201643201A532006180C00210D0C2A12
:1010F000120436120E4312154C12045512115E12D0
:10110000032720113120003A201643201A532006CD
:10111000180C00210F0C2A110436120E4312154C24
:1011200012045512115E12032720113120003A20BB
:101130001643201A532006180D0021120C2A1204FF
:1011400036120E4312154C12045512115E1203276B
:1011500020113120003A201643201A532006180F80
:101160000021110C2A120436120E4312154C1204DF
:101170005512115E12032720113120003A20164328
:10118000201A53200618120021120C2A12043612BB
:101190000E4312154C12045512115E120327201132
:1011A0003120003A201643201A532006181100213E
:1011B000120C2A120436120E4312154C1204551248
:1011C000115E12032720113120003A201643201A05
:1011D00053200618120021120C2A120436120E4354
:1011E00012154C12045512115E12181A8F0E249902
:1011F000142DA30B3AAD0E43B7124CC11355CB1AA5
:1012000062D506189F0021A40C2A9A04369A0E4330
:1012100090154C8B04558B115E8B181A940E249EDE
:10122000142DA80B3AB20E43BC124CC61355D01A5B
:1012300062DA06189F0021A40C2A9A04369A0E43FB
:1012400090154C8B04558B115E8B181A990E24A3A4
:10125000142DAD0B3AB70E43C1124CCB1355D51A12
:1012600062DF06189F0021A40C2A9A04369A0E43C6
:1012700090154C8B04558B115E8B181A9E0E24A86A
:10128000142DB20B3ABC0E43C6124CD01355DA1AC9
:1012900062E406189F0021A40C2A9A04369A0E4391
:1012A00090154C8B04558B115E8B181AA30E24AD30
:1012B000142DB70B3AC10E43CB124CD51355DF1A80
:1012C00062E906189F0021A40C2A9A04369A0E435C
:1012D00090154C8B04558B115E8B181AA80E24B2F6
:1012E000142DBC0B3AC60E43D0124CDA1355E41A37
:1012F00062EE06189F0021A40C2A9A04369A0E4327
:1013000090154C8B04558B115E90181AAD0E24B7B6
:10131000142DC10B3ACB0E43D5124CDF1355E91AED
:1013200062F306189F0021A40C2A9A04369A0E43F1
:1013300090154C8B04558B115E95181AB20E24BC77
:10134000142DC60B3AD00E43DA124CE41355EE1AA4
:1013500062F806189F0021A40C2A9A04369A0E43BC
:1013600090154C8B045590115E9A181AB70E24C133
:10137000142DCB0B3AD50E43DF124CE91355F31A5B
:1013800062FD06189F0021A40C2A9A04369A0E4387
:1013900090154C8B045595115E9F181ABC0E24C6EF
:1013A000142DD00B3ADA0E43E4124CEE1355F81A12
:1013B000620206189F0021A40C2A9A04369A0E4352
:1013C00090154C9004559A115EA4181AC10E24CBA6
:1013D000142DD50B3ADF0E43E9124CF31355FD1AC9
:1013E000620706189F0021A40C2A9A04369A0E431D
:1013F00090154C9504559F115EA9181AC60E24D05D
:10140000142DDA0B3AE40E43EE124CF81355021A7F
:10141000620C06189F0021A40C2A9A04369A0E43E7
:1014200090154C9A0455A4115EAE181ACB0E24D513
:10143000142DDF0B3AE90E43F3124CFD1355071A36
:10144000621106189F0021A40C2A9A04369A0E43B2
:1014500095154C9F0455A9115EB3181AD00E24DAC5
:10146000142DE40B3AEE0E43F8124C0213550C1AED
:10147000621606189F0021A40C2A9A04369A0E437D
:101480009A154CA40455AE115EB8181AD50E24DF77
:10149000142DE90B3AF30E43FD124C071355111AA4
:1014A000621B06189F0021A40C2A9A04369A0E4348
:1014B0009F154CA90455B3115EBD181ADA0E24E429
:1014C000142DEE0B3AF80E4302124C0C1355161A5B
:1014D000622006189F0021A40C2A9A04369A0E4313
:1014E000A4154CAE0455B8115EC2181ADF0E24E9DB
:1014F000142DF30B3AFD0E4307124C1113551B1A12
:10150000621D06189F0021A40C2A9A04369F0E43E0
:10151000A9154CB30455BD115EC7181AE40E24EE8C
:10152000142DF80B3A020E430C124C161355201AC8
:10153000621B06189F0021A40C2A9A0436A40E43AD
:10154000AE154CB80455C2115ECC181AE90E24F33E
:10155000142DFD0B3A070E4311124C1B13551D1A87
:10156000621A06189F0021A40C2A9F0436A90E4374
:10157000B3154CBD0455C7115ED1181AEE0E24F8F0
:10158000142D020B3A0C0E4316124C2013551B1A45
:10159000621A06189F0021A40C2AA40436AE0E433A
:1015A000B8154CC20455CC115ED6181AF30E24FDA2
:1015B000142D070B3A110E431B124C1D13551A1A0A
:1015C000621B06189F0021A40C2AA90436B30E43FF
:1015D000BD154CC70455D1115EDB181AF80E240254
:1015E000142D0C0B3A160E4320124C1B13551A1ACD
:1015F000621D06189F0021A40C2AAE0436B80E43C3
:10160000C2154CCC0455D6115EE0181AFD0E240705
:10161000142D110B3A1B0E431D124C1A13551B1A95
:10162000622006189F0021A90C2AB30436BD0E4380
:10163000C7154CD10455DB115EE5181A020E240CB7
:10164000142D160B3A200E431B124C1A13551D1A5B
:10165000621F0618A40021AE0C2AB80436C20E433D
:10166000CC154CD60455E0115EEA181A070E241169
:10167000142D1B0B3A1D0E431A124C1B1355201A26
:1016800062200618A90021B30C2ABD0436C70E43F8
:10169000D1154CDB0455E5115EEF181A0C0E24161B
:1016A000142D200B3A1B0E431A124C1D13551F1AF2
:1016B00062200618AE0021B80C2AC20436CC0E43B4
:1016C000D6154CE00455EA115EF4181A110E241BCD
:1016D000142D1D0B3A1A0E431B124C201355201AC1
:1016E00062200618B30021BD0C2AC70436D10E4370
:1016F000DB154CE50455EF115EF9181A160E24207F
:10170000142D1B0B3A1A0E431D124C1F1355201A91
:1017100062200618B80021C20C2ACC0436D60E432B
:10172000E0154CEA0455F4115EFE181A1B0E241D38
:10173000142D1A0B3A1B0E4320124C201355201A5D
:1017400062200618BD0021C70C2AD10436DB0E43E7
:10175000E5154CEF0455F9115E03181A200E241BF1
:10176000142D1A0B3A1D0E431F124C201355201A2C
:1017700062200618C20021CC0C2AD60436E00E43A3
:10178000EA154CF40455FE115E08181A1D0E241AB1
:10179000142D1B0B3A200E4320124C201355201AF7
:1017A00062200618C70021D10C2ADB0436E50E435F
:1017B000EF154CF9045503115E0D181A1B0E241A6F
:1017C000142D1D0B3A1F0E4320124C201355201AC6
:1017D00062200618CC0021D60C2AE00436EA0E431B
:1017E000F4154CFE045508115E12181A1A0E241B2B
:1017F000142D200B3A200E4320124C201355201A92
:1018000062200618D10021DB0C2AE50436EF0E43D6
:10181000F9154C0304550D115E0F181A1A0E241DEC
:10182000142D1F0B3A200E4320124C201355201A62
:1018300062200618D60021E00C2AEA0436F40E4392
:10184000FE154C08045512115E0D181A1B0E2420AB
:10185000142D200B3A200E4320124C201355201A31
:1018600062200618DB0021E50C2AEF0436F90E434E
:1018700003154C0D04550F115E0C181A1D0E241F74
:10188000142D200B3A200E4320124C201355201A01
:1018900062200618E00021EA0C2AF40436FE0E430A
:1018A00008154C1204550D115E0C181A200E242038
:1018B000142D200B3A200E4320124C201355201AD1
:1018C00062200618E50021EF0C2AF90436030E43C6
:1018D0000D154C0F04550C115E0D181A1F0E242007
:1018E000142D200B3A200E4320124C201355201AA1
:1018F00062200618EA0021F40C2AFE0436080E4382
:1019000012154C0D04550C115E0F181A200E2420D0
:10191000142D200B3A200E4320124C201355201A70
:1019200062200618EF0021F90C2A0304360D0E433D
:101930000F154C0C04550D115E12181A200E2420A0
:10194000142D200B3A200E4320124C201355201A40
:1019500062200618F40021FE0C2A080436120E43F9
:101960000D154C0C04550F115E11181A200E242071
:10197000142D200B3A200E4320124C201355201A10
:1019800062200618F90021030C2A0D04360F0E43BD
:101990000C154C0D045512115E12181A200E24203D
:1019A000142D200B3A200E4320124C201355201AE0
:1019B00062200618FE0021080C2A1204360D0E4380
:1019C0000C154C0F045511115E12181A200E24200C
:1019D000142D200B3A200E4320124C201355201AB0
:1019E000622006180300210D0C2A0F04360C0E434A
:1019F0000D154C12045512115E12181A200E2420D7
:101A0000142D200B3A200E4320124C201355201A7F
:101A100062200618080021120C2A0D04360C0E4311
:101A20000F154C11045512115E12181A200E2420A5
:101A3000142D200B3A200E4320124C201355201A4F
:101A4000622006180D00210F0C2A0C04360D0E43DF
:101A500012154C12045512115E12181A200E242071
:101A6000142D200B3A200E4320124C201355201A1F
:101A7000622006181200210D0C2A0C04360F0E43AA
:101A800011154C12045512115E12181A200E242042
:101A9000142D200B3A200E4320124C201355201AEF
:101AA000622006180F00210C0C2A0D0436120E437A
:101AB00012154C12045512115E12181A200E242011
:101AC000142D200B3A200E4320124C201355201ABF
:101AD000622006180D00210C0C2A0F0436110E434B
:101AE00012154C12045512115E12181A200E2420E1
:101AF000142D200B3A200E4320124C201355201A8F
:101B0000622006180C00210D0C2A120436120E4316
:101B100012154C12045512115E12181A200E2420B0
:101B2000142D200B3A200E4320124C201355201A5E
:101B3000622006180C00210F0C2A110436120E43E5
:101B400012154C12045512115E12181A200E242080
:101B5000142D200B3A200E4320124C201355201A2E
:101B6000622006180D0021120C2A120436120E43B0
:101B700012154C12045512115E12181A200E242050
:101B8000142D200B3A200E4320124C201355201AFE
:101B9000622006180F0021110C2A120436120E437F
:101BA00012154C12045512115E12181A200E242020
:101BB000142D200B3A200E4320124C201355201ACE
:101BC00062200618120021120C2A120436120E434B
:101BD00012154C12045512115E12181A200E2420F0
:101BE000142D200B3A200E4320124C201355201A9E
:101BF00062200618110021120C2A120436120E431C
:101C000012154C12045512115E12181A200E2420BF
:101C1000142D200B3A200E4320124C201355201A6D
:101C200062200618120021120C2A120436120E43EA
:101C300012154C12045512115E120002000200022D
:101C4000EA01D601D601C201C201C201C201C2012C
:101C5000AE0194017E016A016A016A0156014201E6
:101C60002C0118010401EA00EA00D400D400CA00E3
:101C700068036803680350033A033A032403240308
:101C80002403240324030E03F202DA02C402C40272
:101C9000C402AE02980280026A025402380238027C
:101CA000200220021402181C8F0E2699142FA3164E
:101CB0003CAD0E48B70D51C11A5FCB0618900021FC
:101CC0008B0C2A8B04368B0E438B154C8B04558B57
:101CD000115E8B181C940E269E142FA8163CB20E73
:101CE00048BC0D51C61A5FD006189000218B0C2AF3
:101CF0008B04368B0E438B154C8B04558B115E8BEE
:101D0000181C990E26A3142FAD163CB70E48C10D12
:101D100051CB1A5FD506189000218B0C2A8B043604
:101D20008B0E438B154C8B04558B115E8B181C9EB0
:101D30000E26A8142FB2163CBC0E48C60D51D01A60
:101D40005FDA06189000218B0C2A8B04368B0E4329
:101D50008B154C8B04558B115E8B181CA30E26AD76
:101D6000142FB7163CC10E48CB0D51D51A5FDF06B4
:101D7000189000218B0C2A8B04368B0E438B154C4C
:101D80008B04558B115E8B181CA80E26B2142FBC29
:101D9000163CC60E48D00D51DA1A5FE406189000C2
:101DA000218B0C2A8B04368B0E438B154C8B0455E0
:101DB0008B115E90181CAD0E26B7142FC1163CCBAC
:101DC0000E48D50D51DF1A5FE906189000218B0CE3
:101DD0002A8B04368B0E438B154C8B04558B115E6E
:101DE00095181CB20E26BC142FC6163CD00E48DA2D
:101DF0000D51E41A5FEE06189000218B0C2A8B041B
:101E0000368B0E438B154C8B045590115E9A181C23
:101E1000B70E26C1142FCB163CD50E48DF0D51E965
:101E20001A5FF306189000218B0C2A8B04368B0E58
:101E3000438B154C8B045595115E9F181CBC0E26C8
:101E4000C6142FD0163CDA0E48E40D51EE1A5FF896
:101E500006189000218B0C2A8B04368B0E438B15B1
:101E60004C9004559A115EA4181CC10E26CB142F59
:101E7000D5163CDF0E48E90D51F31A5FFD061890A8
:101E800000218B0C2A8B04368B0E438B154C95044A
:101E9000559F115EA9181CC60E26D0142FDA163CC9
:101EA000E40E48EE0D51F81A5F0206189000218BDF
:101EB0000C2A8B04368B0E4390154C9A0455A411B2
:101EC0005EAE181CCB0E26D5142FDF163CE90E484B
:101ED000F30D51FD1A5F0706189000218B0C2A8B19
:101EE00004368B0E4395154C9F0455A9115EB3180B
:101EF0001CD00E26DA142FE4163CEE0E48F80D51D5
:101F0000021A5F0C06189000218B0C2A8B04369065
:101F10000E439A154CA40455AE115EB8181CD50E8C
:101F200026DF142FE9163CF30E48FD0D51071A5F0A
:101F30001106189000218B0C2A8B0436950E439FB6
:101F4000154CA90455B3115EBD181CDA0E26E41415
:101F50002FEE163CF80E48020D510C1A5F160618AB
:101F60009000218B0C2A9004369A0E43A4154CAE97
:101F70000455B8115EC2181CDF0E26E9142FF316A3
:101F80003CFD0E48070D51111A5F1B0618900021E9
:101F90008B0C2A9504369F0E43A9154CB30455BDEE
:101FA000115EC7181CE40E26EE142FF8163C020E24
:101FB000480C0D51161A5F200618900021900C2A2B
:101FC0009A0436A40E43AE154CB80455C2115ECC2B
:101FD000181CE90E26F3142FFD163C070E48110DB0
:101FE000511B1A5F1D0618900021950C2A9F04367C
:101FF000A90E43B3154CBD0455C7115ED1181CEE94
:102000000E26F8142F02163C0C0E48160D51201AFD
:102010005F1B06189000219A0C2AA40436AE0E43CA
:10202000B8154CC20455CC115ED6181CF30E26FD13
:10203000142F07163C110E481B0D511D1A5F1A066E
:10204000189500219F0C2AA90436B30E43BD154CE8
:10205000C70455D1115EDB181CF80E2602142F0C94
:10206000163C160E48200D511B1A5F1A06189A00CE
:1020700021A40C2AAE0436B80E43C2154CCC04552C
:10208000D6115EE0181CFD0E2607142F11163C1BFE
:102090000E481D0D511A1A5F1B06189F0021A90C2E
:1020A0002AB30436BD0E43C7154CD10455DB115E6F
:1020B000E5181C020E260C142F16163C200E481B89
:1020C0000D511A1A5F1D0618A40021AE0C2AB8047F
:1020D00036C20E43CC154CD60455E0115EEA181CEE
:1020E000070E2611142F1B163C1D0E481A0D511BEE
:1020F0001A5F200618A90021B30C2ABD0436C70EAA
:1021000043D1154CDB0455E5115EEF181C0C0E266F
:1021100016142F20163C1B0E481A0D511D1A5F1F56
:102120000618AE0021B80C2AC20436CC0E43D615D0
:102130004CE00455EA115EF4181C110E261B142FF6
:102140001D163C1A0E481B0D51201A5F200618B3AD
:102150000021BD0C2AC70436D10E43DB154CE50423
:1021600055EF115EF9181C160E2620142F1B163C75
:102170001A0E481D0D511F1A5F200618B80021C203
:102180000C2ACC0436D60E43E0154CEA0455F41163
:102190005EFE181C1B0E261D142F1A163C1B0E4823
:1021A000200D51201A5F200618BD0021C70C2AD12E
:1021B0000436DB0E43E5154CEF0455F9115E0318A8
:1021C0001C200E261B142F1A163C1D0E481F0D51E5
:1021D000201A5F200618C20021CC0C2AD60436E053
:1021E0000E43EA154CF40455FE115E08181C1D0E32
:1021F000261A142F1B163C200E48200D51201A5F62
:10220000200618C70021D10C2ADB0436E50E43EF67
:10221000154CF9045503115E0D181C1B0E261A14DB
:102220002F1D163C1F0E48200D51201A5F20061846
:10223000CC0021D60C2AE00436EA0E43F4154CFEFD
:10224000045508115E12181C1A0E261B142F201696
:102250003C200E48200D51201A5F200618D1002185
:10226000DB0C2AE50436EF0E43F9154C0304550D3B
:10227000115E0F181C1A0E261D142F1F163C200E5F
:1022800048200D51201A5F200618D60021E00C2AA4
:10229000EA0436F40E43FE154C08045512115E0D87
:1022A000181C1B0E2620142F20163C200E48200D33
:1022B00051201A5F200618DB0021E50C2AEF0436B6
:1022C000F90E4303154C0D04550F115E0C181C1D1F
:1022D0000E261F142F20163C200E48200D51201AC8
:1022E0005F200618E00021EA0C2AF40436FE0E43B3
:1022F00008154C1204550D115E0C181C200E2620DA
:10230000142F20163C200E48200D51201A5F200665
:1023100018E50021EF0C2AF90436030E430D154C85
:102320000F04550C115E0D181C1F0E2620142F20B3
:10233000163C200E48200D51201A5F200618EA0096
:1023400021F40C2AFE0436080E4312154C0D0455D8
:102350000C115E0F181C200E2620142F20163C2076
:102360000E48200D51201A5F200618EF0021F90CAD
:102370002A0304360D0E430F154C0C04550D115E47
:1023800012181C200E2620142F20163C200E482048
:102390000D51201A5F200618F40021FE0C2A0804B3
:1023A00036120E430D154C0C04550F115E11181CFE
:1023B000200E2620142F20163C200E48200D5120E0
:1023C0001A5F200618F90021030C2A0D04360F0E9F
:1023D000430C154C0D045512115E12181C200E26CC
:1023E00020142F20163C200E48200D51201A5F206B
:1023F0000618FE0021080C2A1204360D0E430C1597
:102400004C0F045511115E12181C200E2620142F9B
:1024100020163C200E48200D51201A5F200618037C
:1024200000210D0C2A0F04360C0E430D154C12041E
:102430005512115E12181C200E2620142F20163C57
:10244000200E48200D51201A5F2006180800211286
:102450000C2A0D04360C0E430F154C1104551211A5
:102460005E12181C200E2620142F20163C200E4829
:10247000200D51201A5F2006180D00210F0C2A0C88
:1024800004360D0E4312154C12045512115E12182B
:102490001C200E2620142F20163C200E48200D5103
:1024A000201A5F2006181200210D0C2A0C04360F8A
:1024B0000E4311154C12045512115E12181C200EF9
:1024C0002620142F20163C200E48200D51201A5F84
:1024D0002006180F00210C0C2A0D0436120E431290
:1024E000154C12045512115E12181C200E262014D1
:1024F0002F20163C200E48200D51201A5F20061870
:102500000D00210C0C2A0F0436110E4312154C122B
:10251000045512115E12181C200E2620142F2016AE
:102520003C200E48200D51201A5F2006180C002177
:102530000D0C2A120436120E4312154C12045512B9
:10254000115E12181C200E2620142F20163C200E7F
:1025500048200D51201A5F2006180C00210F0C2A6C
:10256000110436120E4312154C12045512115E124C
:10257000181C200E2620142F20163C200E48200D5B
:1025800051201A5F2006180D0021120C2A12043661
:10259000120E4312154C12045512115E12181C2013
:1025A0000E2620142F20163C200E48200D51201AF4
:1025B0005F2006180F0021110C2A120436120E4358
:1025C00012154C12045512115E12181C200E2620F2
:1025D000142F20163C200E48200D51201A5F200693
:1025E00018120021120C2A120436120E4312154C36
:1025F00012045512115E12181C200E2620142F20D2
:10260000163C200E48200D51201A5F20061811009C
:1026100021120C2A120436120E4312154C120455C4
:1026200012115E12181C200E2620142F20163C209A
:102630000E48200D51201A5F200618120021120C9E
:102640002A120436120E4312154C12045512115E52
:1026500012804000000000000000000000000000A8
:102660000004040404040484848494D4F6F6FEFF75
:10267000FFFFFFFFFFFFFFFFFFFFFFFFFF8181194C
:10268000191919F9F9F91919191901010101F9F9BA
:10269000F9010101018787E1E1797919191919799E
:1026A00079616107071F1FFFFFFFFFFFFFFFFFFFAC
:1026B000FFFFFFFFFFFFFFFFFEF6F6D49484848444
:1026C00004040404040400000000000000000000F2
:1026D00000000000000000000000000000000000FA
:1026E0000000000000008080989C9CDEFEFFFFFF41
:1026F000FFFFFFFFFFFFFFFFFFFFFFFFFFFFFFFEEB
:10270000FE0000FFFFFF00000000FEFE0000FFFFD4
:10271000FF000000001F1F7F7FE0E080808080E0DE
:10272000E0606000001818FFFFFFFFFFFFFFFFFFE2
:10273000FFFFFFFFFFFFFFFFFFFFFEDE9C9C988077
:102740008000000000000000000000000000000009
:102750000000000000000000000000000000000079
:10276000008082828383838383878FCFEFEFFFFF95
:10277000FFFFFFFFFFFFFFFF3F3F3F3F3F3F3F3F69
:102780003F383821212120E0E0203F3F3838212107
:1027900021202020203838E0E0E1E1E1E121212181
:1027A000212020202038383F3FFFFFFFFFFFFFFFA1
:1027B000FFFFFFFFFFFFEFEFCF8F8F8F8F8F8B8B91
:1027C0008B83838282000000000000000000000074
:1027D00000000000000000000000000000000000F9
:1027E0000000000000028383839BDBFBFFFFFFFFF1
:1027F000FFFFFFFFFFFFFFFFF0F0C3C30303FFFF77
:10280000FF03030303C0C00000FCFCFFFFC3C3C3FE
:10281000C3C3C3FFFFFCFC00000303F0F0FCFC0F8C
:102820000F030303030F0F0C0C00000303FFFFFF54
:10283000FFFFFFFFFFFFFFFFFFFFFBDB9B838383A8
:102840000200000000000000000000000000000086
:102850000000000000000000000000000000000078
:1028600000000000000000088C8C9E9E9FDFFFFF90
:10287000FFFFFFFFFFFFFFFFFFFFFFFF00003F3FE6
:102880003F00000000FFFF00003F3F3F3F0000000F
:102890000000003F3F3F3F0000000003030F0F3CDC
:1028A0003C303030303C3C0C0C00000303FFFFFF99
:1028B000FFFFFFFFFFFFFFFFDF9F9E9E8C8C080046
:1028C0000000000000000000000000000000000008
:1028D0000000000000000000000000000080808078
:1028E00080808080828283838BCBEBEFFFFFFFFFB2
:1028F000FFFFFFFFFFFFFFFFFF070767676764E456
:10290000E4E46464646707071F1C1C1C8484E4E41B
:102910006467E7E484841C1C7C7C0407E7E4E4E44B
:10292000646464646464646404041C1FFFFFFFFF48
:10293000FFFFFFFFFFFFFFFFFFFFEFEBCB8B83836B
:102940008282808080808080800000000000000003
:102950000000000000000000000000000000000077
:1029600000020313131B1B1B1F1F1F3FBFFFFFFF93
:10297000FFFFFFFFFFFFFFFFFFFEFEF8F80000FF75
:10298000FFFF00000000F8F800007E7EFFFF81815D
:1029900000008181FFFF7E7E00000000FFFFFFFF3F
:1029A00018181818181800000000F8F8FFFFFFFFAB
:1029B000FFFFFFFFFFFFFFFFFFBF3F1F1F1F1B1B8F
:1029C0001B131303020000000000000000000000C1
:1029D00000000000000000000000000000000000F7
:1029E000000000000000000001313939BDFDFFFF8B
:1029F000FFFFFFFFFFFFFFFFFFFFFFFFFFE0E0879D
:102A0000878780808080FFFFF8F8E0E081818787FA
:102A10008686878781818080E0E0808087878787BE
:102A2000868686868686868680808181FFFFFFFF78
:102A3000FFFFFFFFFFFFFFFFFDBD39393101000040
:102A40000000000000000000000000000000000086
:102A50000000000208D4D205087F7F3E1C084120F8
:102A6000FE0105F1F1F111D1B1D111F151515151E5
:102A7000515151515151515151510000FF00007FAE
:102A80007F09090F06007F7F19396F46007F7F4954
:102A900049414100266F49497B3200266F49497BF5
:102AA00032FF0000FFFFFFFEFFFEFF0279CD95A57C
:102AB000CD790111111101F9F901010000FF0000A8
:102AC0007F7F09090F06007F7F40404040007C7EE9
:102AD0000B0B7E7C00070F78780F070000000000CA
:102AE0000000FF00001F3F3F33333333333E3636A1
:102AF0003E363E363E36363E36363E360000FF0027
:102B0000003E7F41417F3E007F7F0E1C7F7F0000A3
:102B100000000000000000000000000000000000B5
:102B20000000003F405040404078464141595941E3
:102B30004141415959414141414141414100007F99
:102B4000000001017F7F0101007C7E0B0B7E7C0079
:102B50007F7F09090F06007F7F494941410000003E
:102B600000000000080B000202020000090400003F
:102B700001020200000524001001052401010104E6
:102B80002402060524060001070581031000400900
:102B9000040100020A0000000705020240000007CD
:102BA0000583024000000403090412010002EF0241
:102BB0000140412336800001010203014172647526
:102BC000696E6F204C4C430041424C31333036002B
:102BD00008080000050202050000080802020707B5
:102BE00007070202C72811241FBECFEFDAE0DEBFBD
:102BF000CDBF11E0A0E0B1E0E8E6F8E602C0059044
:102C00000D92A636B107D9F726E0A6E6B1E001C0DD
:102C10001D92A031B207E1F715E1C3EFD5E104C081
:102C20002197FE010E942334C23FD107C9F70E94B9
:102C3000DC280C9432340C9400004F925F926F9217
:102C40007F928F929F92AF92BF92CF92DF92EF923C
:102C5000FF920F931F93CF93DF937C01590141158E
:102C6000510509F476C0FA01149131968491C12F6F
:102C7000D0E0D701AC0FBD1F1A161B060CF069C0BF
:102C8000F0E8EF16F1040CF064C09B01280F311D31
:102C9000121613060CF05DC0603471050CF059C0BB
:102CA000262F2770922EFB0177FD379633E0F5959E
:102CB000E7953A95E1F73E2F77FF04C0992011F090
:102CC0003FEF3E0FEE27FF27EE19FF09F7FC02C08A
:102CD000F0E0E0E090E89E19A038B1050CF4912FE7
:102CE0009E1B632F032E000C770BC62EC0943F3F14
:102CF0000CF0C12C21E0A82FA77009F420E0D82EF9
:102D0000D694D694D694D20E6D0D711D693071058E
:102D10001CF028E0D22ED31ADC183C0D20E8320338
:102D2000D0011124AE0DBF1DAE0FBF1F1C9DE00DC5
:102D3000F11D11244E5F5F4F4E0F5F1FE92C092CD0
:102D4000000CFF08023009F449C0A0F4013009F476
:102D50008EC0DF91CF911F910F91FF90EF90DF9088
:102D6000CF90BF90AF909F908F907F906F905F902B
:102D70004F900895033009F4C1C02D2D230F0A3F51
:102D800041F7321731F3BD0160547E4F10E000E08F
:102D9000091708F066C0FA01E00FF11FE491F0E0B6
:102DA0005F010E2C02C0AA0CBB1C0A94E2F737FD8F
:102DB00004C0FB0180818A298083992051F037303B
:102DC00044F46B01F0E8CF0ED11CF60180818B2911
:102DD00080830F5F1F4F6F5F7F4FDACF6FEF70E021
:102DE000092C02C0660F771F0A94E2F76095709570
:102DF000772E2D2D230F231709F4ABCF8D0100540F
:102E00001E4FD12CC12CC91630F5FA01EC0DFD1D59
:102E1000E491F0E02F010E2C02C0440C551C0A94E2
:102E2000E2F737FD05C0F80180818623842980837D
:102E3000992059F037304CF45801F0E8AF0EB11C2E
:102E4000F5018081872185298083FFEFCF1ADF0A72
:102E50000F5F1F4FD8CF3F5F4C0F5D1FA058BF4F74
:102E6000CACF3F5F4C0F5D1FA058BF4F8ACFB5013F
:102E70006E0F7F1F2D2D230F231709F46ACF8D01AD
:102E800000541E4FD12CC12CC91680F5FB01EC0D4E
:102E9000FD1DA490B12C0E2C02C0AA0CBB1C0A94E0
:102EA000E2F7A094B094FA01EC0DFD1D6490712C32
:102EB0000E2C02C0660C771C0A94E2F737FD05C0A1
:102EC000F80180818A2186298083992049F0373052
:102ED0003CF4F801E058FF4F80818B2187298083E3
:102EE000FFEFCF1ADF0A0F5F1F4FCECF3F5F4C0FB0
:102EF0005D1F6C0F7D1FA058BF4FBECFE92EF12C78
:102F0000E40FF51FA054BE4F00E810E00E191F0992
:102F1000CE19DF09AE01440F551F61E070E07B015F
:102F2000092C01C0EE0C0A94EAF7792F2D2D892E79
:102F3000CF93DF93ED01EF96EF962296A590C59083
:102F4000992059F0AE9C5001CE9C600137302CF492
:102F5000F880D094FD20FB28F99233233AF0FC90BE
:102F6000C094FC20FA28FD920C94B71711967A951C
:102F700029F72A9551F0782D33951124E40FF11D8E
:102F8000A00FB11DC00FD11DD9CFDF91CF9111245A
:102F9000E0CE0F9302E030E020E00E941D160F917A
:102FA0000895CF93DF93CDB7DEB76B970FB6F89444
:102FB000DEBF0FBECDBF30E020E0AE014F5F5F4F00
:102FC000F901EB55FE4FD901A40FB51FB9016255A8
:102FD0007E4F90819C93918111969C931197928141
:102FE00012969C93129733961396E617F70789F774
:102FF000275F3F4F2B31310519F790E018163CF54C
:1030000080E0DA01A81BB90BFC01E954FE4F9C01DA
:1030100020543E4F6C91628311966C91119761839D
:1030200012966C911297608313963396E217F3070A
:1030300089F70997853E2FEF920719F76B960FB620
:10304000F894DEBF0FBECDBFDF91CF91089580E031
:10305000DA01A81BB90BFC01E954FE4F9C01205476
:103060003E4F6C91628311966C9111976183129619
:103070006C911297608313963396E217F30789F7E2
:103080000997853E2FEF920719F7D8CFEF92FF925D
:103090000F931F93CF93DF93CDB7DEB76B970FB628
:1030A000F894DEBF0FBECDBF30E020E095EAE92EF8
:1030B00091E0F92EA9014B555E4FFE013196B90101
:1030C0006E0F7F1F890102551E4FDA019C91DB01B3
:1030D0009C93DA0111969C91DB0111969C93DA0185
:1030E00012969C91DB0112969C934D5F5F4F6D5F32
:1030F0007F4F0417150749F7275F3F4F2B313105E5
:10310000A9F618160CF457C089818093AB018A8107
:103110008093A8018B818093A5018C818093AC0161
:103120008D818093A9018E818093A6018F818093E8
:10313000AD0188858093AA0189858093A7018EEAD5
:1031400091E09F01275F3F4FBF01DB0119964C9132
:10315000DC0116964C93DB011A964C91DC01139618
:103160004C93DB011B964C91DC014D93CD016D5FBF
:103170007F4F2617370749F787EB91E02289DC015B
:1031800016962C931697238913962C9313972489BC
:103190002D93CD013396E617F70781F76B960FB69F
:1031A000F894DEBF0FBECDBFDF91CF911F910F917D
:1031B000FF90EF900895CF014B962081D701129692
:1031C0002C931297218115962C931597228118968E
:1031D0002C931897238111962C9311972481149680
:1031E0002C931497258117962C93179726812C934F
:1031F000278113962C931397208516962C93399636
:10320000B9E0EB0EF11C8E179F07B9F6C7CF2F92CE
:103210003F924F925F926F927F928F929F92AF9266
:10322000BF92CF92DF92EF92FF920F931F93CF93B3
:10323000DF9300D000D000D0CDB7DEB7582E262EB9
:1032400086E1589E900111243A8329838DE4E82E6B
:1032500081E0F82E9AE4A92E91E0B92EE9E05E9E75
:10326000C0011124FE82ED82712C612CFC01EB5512
:10327000FE4FFC83EB83362C8B809C80860C971C46
:10328000D12CC12C4D804E188C2D45EA51E090E098
:10329000FA0120E03081332369F0618136130AC0DE
:1032A0006281361307C0591203C011E08217C9F1B9
:1032B00010E037C02F5F3396233061F79F5F475F81
:1032C0005F4F933029F745EA51E090E0FA0120E0A2
:1032D0003191332361F06281361309C06581361361
:1032E00006C05912E5CF11E03212E2CF1AC02F5FAB
:1032F000233071F79F5F475F5F4F933039F7E5EAFF
:10330000F1E090E02081222309F4ABC03481231343
:10331000A8C030852313A5C05912CACF11E03812B6
:10332000C7CFF4018081813091F5222051F0112323
:1033300041F08091A3019091A4018F71992740974A
:1033400030F5F601E05BFE4F808169817A81680F7C
:10335000711D87FD7A95ED81FE818081680F711D59
:1033600087FD7A95F5018081082E000C990BCC968B
:10337000F601E95BFE4FE0810AEF30E020E04AED24
:103380005BE28E0F911DE7FD9A950E941D16F401D8
:103390008081823091F5222051F0112341F08091FB
:1033A000A3019091A4018F719927409730F5F60100
:1033B000E05BFE4F808169817A81680F711D87FD16
:1033C0007A95ED81FE818081680F711D87FD7A9568
:1033D000F5018081082E000C990BCC96F601E95B73
:1033E000FE4FE0810AEF30E020E040ED5BE28E0F1F
:1033F000911DE7FD9A950E941D16FFEFCF1ADF0A77
:1034000023E0820E911C33E0C316D10409F03CCFB7
:103410008FEF681A780AED81FE813196FE83ED8385
:10342000FFEFAF1ABF0A23E06216710409F023CF41
:1034300026960FB6F894DEBF0FBECDBFDF91CF91B9
:103440001F910F91FF90EF90DF90CF90BF90AF90C2
:103450009F908F907F906F905F904F903F902F90B4
:10346000089522812223A9F03481231312C03681CA
:1034700023130FC059121CCF11E0811104C0F2E0D8
:103480004F1216CF4ECF813009F055C0411210CFE8
:1034900048CF9F5F3996933009F034CF45EA51E029
:1034A00090E0FA0120E03191332349F06085361332
:1034B00006C06189361303C08913FACE14CF2F5F7B
:1034C000233089F79F5F4D5F5F4F933051F7E5EAF7
:1034D000F1E090E020812223B9F03285231314C05B
:1034E0003489231311C08913E3CE511005C011E0B4
:1034F0003D813E11DDCE15CF81E011E0581631F24D
:1035000092E04912D5CE0DCF22812223C1F032851F
:10351000231315C03289231312C08913C9CE511049
:1035200005C011E0E2E04E12C3CEFBCEF1E011E0A7
:103530005F1609F4ABCF2D812E11BACEF2CE9F5F6C
:103540003396933039F6E5EAF1E090E021912223B9
:1035500099F03385231310C0378923130DC0391216
:10356000A7CE11E05520F1F031E011E0531212C066
:10357000813009F09DCED5CE25812223B9F0338547
:10358000231314C03189231311C0391291CE511065
:1035900005C011E0823009F08BCEC3CE91E011E07E
:1035A000591631F3882309F4BCCE82CE9F5F933045
:1035B00069F69091A501992309F12091B201921326
:1035C0001DC02091BF01921319C0511007C0811175
:1035D0006FCE11E0ED81EE126BCEA3CEF1E05F1263
:1035E00005C0813009F064CE11E050CF823009F07F
:1035F0005FCE11E022E042125BCE93CE9091A70104
:103600009923E1F02091B201921318C02091BD01DD
:10361000921314C0511007C081114ACE11E032E05C
:10362000431246CE7ECE91E05916D9F2823009F08F
:103630003FCE11E0ED81EE113BCE73CE9091AB0108
:103640009923B9F02091B201921313C02091B901CE
:1036500092130FC0511008C0823009F029CE11E03A
:10366000FD81FE1125CE5DCE21E0521609F4B9CFC1
:10367000D3CF9091AD01992309F41ACE2091B201D4
:10368000921316CE2091B701921312CE511007C09B
:10369000823009F00DCE11E048120ACE42CE91E000
:1036A000591609F49ECF811103CEC3CFFC0180913E
:1036B000A201882311F13FB7F89482E08093E900DA
:1036C0002091F200822F90E01816190614F481E080
:1036D00090E0882339F0289844E64093A101409176
:1036E000F1004083222339F02091F200211103C020
:1036F0002BE62093E8003FBF08958FEF9FEF0895DA
:103700002FB7F89483E08093E9009091E800892F27
:10371000807295FF04C09091F20080E4891B2FBF56
:1037200008958091990181110DC082E080939501E7
:1037300084E080939601109298011092970181E0A5
:103740008093990185E991E00895CF93DF931F92CB
:10375000CDB7DEB76983DC01ED91FC910280F38186
:10376000E02D41E050E0BE016F5F7F4F09950F9063
:10377000DF91CF91089583E08093E9008091F2007A
:10378000882319F08AE38093E80008950E94801B43
:1037900090E00895CF93DF931F92CDB7DEB7FC0181
:1037A0008485958597FD08C02FEF3FEF35872487E7
:1037B0000F90DF91CF910895CE0101960E94561B84
:1037C000019719F4898190E0F3CF8FEF9FEFF0CF4D
:1037D0000F931F93CF93DF931F92CDB7DEB78C016A
:1037E000FC018485958597FF0BC0CE0101960E9450
:1037F000561B019771F4898190E0F80195878487C1
:10380000F801848595850F90DF91CF911F910F91DD
:1038100008958FEF9FEFF1CFFC018485958597FD8B
:103820000BC09FB7F89482E08093E9008091F2008A
:103830009FBF90E0019608959FB7F89482E080932F
:10384000E9008091F2009FBF90E0089540918F01C0
:103850005091900120918D0130918E0142175307B4
:10386000B4F49091E8009570E1F39091E80092FD36
:1038700019C08093F10080918F0190919001019681
:103880008F739927892B19F48EEF8093E80080912C
:103890008F019091900101969093900180938F01F8
:1038A00081E0089580E00895EF92FF920F931F93B7
:1038B000CF93DF93F82E192FE62E042F81E0860F89
:1038C000880F0E94261C83E00E94261CCF2DD12F3A
:1038D000EC0EFD2EF11CCE15DF05B9F007FF13C06D
:1038E000FE0184910E94261C182F80E00E94261C55
:1038F000812321968111EFCFDF91CF911F910F91FD
:10390000FF90EF9008958881EDCF81E0F5CFDF92B1
:10391000EF92FF920F931F93CF93DF93D82E8A01DC
:10392000EB017B01E40EF51ECE15DF0559F0D7FE45
:1039300012C0FE0184910E94261C21968111F4CFB1
:103940000FEF1FEFC801DF91CF911F910F91FF90F3
:10395000EF90DF9008958881EECF0F931F93CF9360
:10396000DF931F92CDB7DEB782E0898342E450E057
:1039700064E67BE280E80E94871C0E94911BDC01C8
:1039800012960D911C910115110589F0D801ED9148
:10399000FC910280F381E02DBE016F5F7F4FC80173
:1039A000099597FD04C0F80100851185ECCF898148
:1039B0000F90DF91CF911F910F910895615030F0DA
:1039C0002091F100FC0120830196F8CF289884E62D
:1039D0008093A1010895FC010E94861D319728F073
:1039E00068517C4F8F4F9F4FF9CFAB01FC010E9474
:1039F000861D641775078E079F07C8F3089585E035
:103A000090E00C94EB1C8F929F92AF92BF92CF925A
:103A1000DF92EF92FF920F931F93CF93DF936C018E
:103A20007B018A0180911301882309F45AC0809197
:103A3000A201882309F455C08091940180FF05C03C
:103A40008091E00082608093E000E801B12C8AEF71
:103A5000A82E93E0892E2AE3922E209711F4BB2002
:103A6000C9F10E94801B811108C0AA94AA20C9F143
:103A700081E090E00E94EB1CF0CF8C171D0611F046
:103A80000CF08C2F9FB7F8948092E9002091E80009
:103A900025FD02C09FBFE1CF282F30E0C21BD30B12
:103AA000F701815020F041914093F100FACFE20EEE
:103AB000F31EBB2021F09092E800B12CEBCF809157
:103AC000E80085FDE7CF9092E800BB24B3942097EF
:103AD00009F3F3CF5D9884E68093930110161106E5
:103AE0003CF081E090E0F6019383828310E000E0F7
:103AF000C801DF91CF911F910F91FF90EF90DF9060
:103B0000CF90BF90AF909F908F900895A9E8B1E0BB
:103B10002FB7F8947D918D919C9166B52FBFA89B8E
:103B200005C06F3F18F47F5F8F4F9F4F22E0660FF5
:103B3000771F881F991F2A95D1F708950F93FB01CE
:103B4000DC016D917D918D919C912081318142812B
:103B500053810E94D03200E10E94FA33B901CA01B8
:103B60000F910895AF92BF92CF92DF92EF92FF92A2
:103B70000F931F93CF93DF936C017B018B01040F95
:103B8000151FEB015E01AE18BF08C017D10759F031
:103B90006991D601ED91FC910190F081E02DC60173
:103BA0000995892B79F7C501DF91CF911F910F916D
:103BB000FF90EF90DF90CF90BF90AF9008958FB1BE
:103BC0008095807F669B88601C9B8460089590919F
:103BD0007C01982329F490917D01982381E009F4D8
:103BE00080E0089580389105B8F460347105A0F440
:103BF00090E121E061FD24E060FD220F62FD22954D
:103C0000687F969FD0011124A80FA054BE4F0C903E
:103C1000022A40FF02260C9208952F923F924F9263
:103C20005F926F927F928F929F92AF92BF92CF924C
:103C3000DF92EF92FF920F931F93CF93DF93EC01EC
:103C40008B017A016901C61AD70AD7FE03C0D19445
:103C5000C194D10847018C1A9D0A97FE03C0919424
:103C6000819491088C149D0454F49E2D8F2D79011C
:103C7000292F382F9C2F8D2FE801092F182FEC1694
:103C8000FD0654F4902F812F8901292F382F9C2F66
:103C90008D2FE701E92EF82E17012C1A3D0A290174
:103CA000401A510A57FE03C0519441945108310102
:103CB00037FE03C08FEF681A780A759467948FEF08
:103CC000021713070CF481E0A82E880FBB08EC162E
:103CD000FD06A4F041E0BE01C8018C149D0414F05F
:103CE000B801CE010E94F21D6418750877FE04C069
:103CF0000A0D1B1D620C731C2196E9CFDF91CF9139
:103D00001F910F91FF90EF90DF90CF90BF90AF90F9
:103D10009F908F907F906F905F904F903F902F90EB
:103D200008958F929F92AF92BF92CF92DF92EF92BF
:103D3000FF920F931F93CF93DF936D3089F0C09064
:103D40008001D09081016A30D1F410927F011092ED
:103D50007E0188E0C80ED11CD0928101C092800102
:103D600081E090E0DF91CF911F910F91FF90EF9054
:103D7000DF90CF90BF90AF909F908F90089500916B
:103D80007E0110917F01E5E06E9FE0011124C25891
:103D9000DC4F4801F12CF5E0E12CFF1629F0CE01B3
:103DA0000196FE01E490EC01B12CA12C4E2D417046
:103DB000B6016A0D7B1DC4010E94F21DE694FFEF5F
:103DC000AF1ABF0A88E0A816B10481F7F394EFEFA9
:103DD0008E1A9E0AF6E0FF12DECF0A5F1F4F109385
:103DE0007F0100937E01BCCFE5E0F1E08283618337
:103DF000408310927B01089525EA31E0A90193E008
:103E0000FA0163E08081882341F07181871305C046
:103E10007281871302C090E008956150339661115A
:103E2000F1CF9150475F5F4F9111EACF45EA51E0E2
:103E300093E0FA0163E08191882331F07281871366
:103E400003C07581871739F36150A9F79150475F17
:103E50005F4F9111EECFE5EAF1E08081882331F0E8
:103E60009481891303C090858917A9F282818823E0
:103E700031F09481891303C09681891761F23996D4
:103E800081E0E03CF80749F745EA51E093E0FA01A8
:103E900063E08191882339F07085871304C07189AC
:103EA000871709F4B8CF6150A1F791504D5F5F4F6C
:103EB0009111EDCF4EEA51E0E5EAF1E080818823EF
:103EC00039F09285891304C09489891709F4A3CF26
:103ED0008281882339F09285891304C092898917D9
:103EE00009F499CF33964E175F0741F748EA51E03E
:103EF000E5EAF1E08191882339F09385891304C0C4
:103F00009789891709F487CF8581882339F09385AC
:103F1000891304C09189891709F47DCF4E175F0773
:103F200049F78091A501882349F09091B201891346
:103F300005C09091BF01891709F46DCF8091A70149
:103F4000882349F09091B201891305C09091BD0179
:103F5000891709F460CF8091AB01882349F09091D3
:103F6000B201891305C09091B901891709F453CFA3
:103F70008091AD01882349F09091B201891305C069
:103F80009091B701891709F446CF83E0F90193E0D6
:103F90004081442391F04181442379F042814423BC
:103FA00061F0915033969111F3CF8150275F3F4FCD
:103FB0008111ECCF83E090E0089590E080E00895D7
:103FC0004F925F926F927F92AF92BF92CF92DF92A9
:103FD000EF92FF920F931F93CF93DF93CDB7DEB78E
:103FE0002C970FB6F894DEBF0FBECDBF6D837E83D6
:103FF0008F83988729873A874B875C872701380109
:10400000DC01CB0184199509A609B70989839A8334
:10401000AB83BC8368E371E0CE0101960E949E1DD4
:10402000805C9F4FD6018D939C932D813E814F8163
:104030005885420E531E641E751E49825A826B8239
:104040007C8264E371E0CE0101960E949E1D298569
:104050003A854B855C85621B730B840B950B8696AA
:10406000D5018D939C932C960FB6F894DEBF0FBEAE
:10407000CDBFDF91CF911F910F91FF90EF90DF9017
:10408000CF90BF90AF907F906F905F904F900895CA
:10409000089590E080E008954F925F926F927F9232
:1040A000AF92BF92CF92DF92EF92FF920F931F9346
:1040B000CF93DF93CDB7DEB728970FB6F894DEBF66
:1040C0000FBECDBF5C018B01CA01B9010E94CD308A
:1040D00020E030E040E857E30E9470316B017C0142
:1040E0000E94903020E030E040E857E40E947031B8
:1040F0000E94953069837A838B839C83C701B601C4
:104100000E94DD3120E030E040E857E40E94703149
:104110000E9495306D837E838F839887BE016B5F8D
:104120007F4FC8010E949E1D6B017C01BE016F5F25
:104130007F4FC5010E949E1D2B013C014C185D085C
:104140006E087F08BE016F5F7F4FC8010E949E1DF1
:104150006B017C01BE016B5F7F4FC5010E949E1DFC
:10416000C60ED71EE81EF91EF501408251826282FA
:104170007382F801C082D182E282F38228960FB660
:10418000F894DEBF0FBECDBFDF91CF911F910F918D
:10419000FF90EF90DF90CF90BF90AF907F906F90A7
:1041A0005F904F9008954F925F926F927F92AF927F
:1041B000BF92CF92DF92EF92FF920F931F93CF9314
:1041C000DF93CDB7DEB768970FB6F894DEBF0FBEAA
:1041D000CDBF69877A878B879C872D8B3E8B4F8BD2
:1041E000588FED86FE860F87188BA98ABA8ACB8AEC
:1041F000DC8A8E01075D1F4FF8014190519061905C
:1042000071908F0120916E0130916F01409170018A
:1042100050917101BE01635F7F4FCE0109960E94EC
:104220004C2020916E0130916F01409170015091AE
:104230007101B801CE0141960E944C20ED84FE84AC
:104240000F85188969857A858B859C859E012D5FF0
:104250003F4F5901FE0131966F012D893E894F89EB
:10426000588D0E94E01FEDA4FEA40FA518A969892E
:104270007A898B899C899E01295F3F4F5901FE01F4
:1042800035966F01A30192010E94E01F2F813885AE
:104290004D815E816B817C8189819A810E940D1E96
:1042A00068960FB6F894DEBF0FBECDBFDF91CF91F9
:1042B0001F910F91FF90EF90DF90CF90BF90AF9044
:1042C0007F906F905F904F9008952F923F924F9202
:1042D0005F926F927F928F929F92AF92BF92CF9296
:1042E000DF92EF92FF920F931F93CF93DF93CDB79F
:1042F000DEB761970FB6F894DEBF0FBECDBF4B019E
:104300001C018091140190911501A0911601B091AA
:1043100017012C013D01770C4408542C32019C01FB
:10432000AD01642D742D842D942D00E10E94E133A4
:104330002D87398B2A01662EB72FF82FE92FD22E21
:10434000E32EF42E052D162F772EB82EC92EA0E0C1
:104350000E94173484F4215031094E4F5F4F6F4F44
:104360007F4F8F4F9F4FD22EE32EF42E052F162F07
:10437000772EB82EC92E2D2D3E2D4F2D502F612F6B
:10438000772D8B2D9C2D01E10E94FA33752E298704
:104390003A874B875C87A12CB12C93E0C92ED12C96
:1043A000E12CF12C00E010E02D853989A201662D69
:1043B0007B2F8F2F9E2F0E940C332D833E834F83A4
:1043C000588729853A854B855C8550954095309571
:1043D00021953F4F4F4F5F4F2D873E874F87588B1B
:1043E0005F934F933F932F933F922F929F928F9281
:1043F000A984BA84CB84D72CED84FE840F851889D8
:104400009401A101C801B7010E94D3207F923B858E
:104410003F934A854F9359855F933F922F929F9286
:104420008F92A984BA84CB84ED84FE840F85188989
:104430009401A101B5018C2D972D0E94D3207F926C
:104440008B858F939A859F93A985AF933F922F92E7
:104450009F928F92AD84BE84CF84D888E984FA84F9
:104460000B85172D9401A101B701802F972D0E9474
:10447000D320B889BF932F852F933E853F934D85D9
:104480004F933F922F929F928F92AD84BE84CF84A0
:10449000D888E984FA840B859401A101C601B5018D
:1044A0000E94D3200FB6F894DEBF0FBECDBF412CC3
:1044B000512C3201639449825A826B827C82BE0104
:1044C0006B5F7F4FCE0101960E949E1D29853A8524
:1044D0004B855C85621B730B840B950B5F934F932D
:1044E0003F932F933F922F929F928F925B016C018B
:1044F000ED84FE840F8518899401A1010E94D320C8
:104500003FEF631A730A0FB6F894DEBF0FBECDBF3C
:104510004114510453E06506710469F6412C512C95
:104520003201639449825A826B827C82BE016B5F46
:104530007F4FCE0101960E949E1DDC01CB01298593
:104540003A854B855C85821B930BA40BB50BBF93FF
:10455000AF939F938F933F922F929F928F92A984B4
:10456000BA84CB84DC847C018D019401A1016D852A
:104570007E858F8598890E94D3203FEF631A730A46
:104580000FB6F894DEBF0FBECDBF4114510453E007
:104590006506710439F661960FB6F894DEBF0FBE5A
:1045A000CDBFDF91CF911F910F91FF90EF90DF90E2
:1045B000CF90BF90AF909F908F907F906F905F90C3
:1045C0004F903F902F9008952F923F924F925F927D
:1045D0006F927F928F929F92AF92BF92CF92DF9213
:1045E000EF92FF920F931F93CF93DF93CDB7DEB778
:1045F0002C970FB6F894DEBF0FBECDBF6C011B0128
:1046000047015801FC0180819181A281B381881901
:104610009909AA09BB0980839183A283B383CA0144
:10462000B9010E94CD3020E030E040E857E30E941D
:1046300070312B013C010E94903020E030E040E8D6
:1046400057E40E9470310E94953069837A838B838E
:104650009C83C301B2010E94DD3120E030E040E8DC
:1046600057E40E9470310E9495306D837E838F8362
:104670009887BE016B5F7F4FC1010E949E1D2B0179
:104680003C01BE016F5F7F4FC6010E949E1D9B01D2
:10469000AC01241935094609570929873A874B8700
:1046A0005C87BE016F5F7F4FC1010E949E1D2B0181
:1046B0003C01BE016B5F7F4FC6010E949E1D460EEE
:1046C000571E681E791E89859A85AB85BC85F601C3
:1046D00080839183A283B383D1014D925D926D92C9
:1046E0007C92139780819181A281B381880D991D5D
:1046F000AA1DBB1D80839183A283B3832C960FB622
:10470000F894DEBF0FBECDBFDF91CF911F910F9107
:10471000FF90EF90DF90CF90BF90AF909F908F90E1
:104720007F906F905F904F903F902F9008954F92A1
:104730005F926F927F92AF92BF92CF92DF92EF9291
:10474000FF920F931F93CF93DF93CDB7DEB764979C
:104750000FB6F894DEBF0FBECDBF698B7A8B8B8B03
:104760009C8B29873A874B875C87ED86FE860F876F
:10477000188B2501360120916E0130916F01409117
:10478000700150917101EDA4FEA40FA518A9BE01FE
:10479000635F7F4FCE0109960E94E42220916E0153
:1047A00030916F014091700150917101EDA4FEA410
:1047B0000FA518A9BE01675D7F4FCE0185960E94A7
:1047C000E422ED84FE840F85188929853A854B857E
:1047D0005C85CE0103965C0102976C0169897A8938
:1047E0008B899C890E94E01FE9A4FAA40BA51CA553
:1047F0002DA13EA14FA158A5CE0107965C010297BD
:104800006C01C301B2010E94E01F2F8138854D81E8
:104810005E816B817C8189819A810E940D1E6496E4
:104820000FB6F894DEBF0FBECDBFDF91CF911F91C1
:104830000F91FF90EF90DF90CF90BF90AF907F905F
:104840006F905F904F9008952F923F924F925F929A
:104850006F927F928F929F92AF92BF92CF92DF9290
:10486000EF92FF920F931F93CF93DF93CDB7DEB7F5
:1048700065970FB6F894DEBF0FBECDBF4B011C018C
:10488000C901E98AFA8A0B8B1C8B29013A01770C42
:104890004408542C32019C01642D742D842D942DD8
:1048A00000E10E94E1332D873D8B2A01662EB72F50
:1048B000F82FE92FD22EE32EF42E052D162F772E6A
:1048C000B82EC92EA0E00E94173484F4215031097B
:1048D0004E4F5F4F6F4F7F4F8F4F9F4FD22EE32E24
:1048E000F42E052F162F772EB82EC92E2D2D3E2DE6
:1048F0004F2D502F612F772D8B2D9C2D01E10E9484
:10490000FA33752E29873A874B875C87A12CB12C07
:1049100093E0C92ED12CE12CF12C00E010E02D8584
:104920003D89A201662D7B2F8F2F9E2F0E940C3375
:104930002D833E834F83588729853A854B855C8537
:1049400050954095309521953F4F4F4F5F4F2D87A4
:104950003E874F87588B3C893F934B894F935A89A9
:104960005F9389898F9398899F93AF85AF93BE8515
:10497000BF932F933F922F929F928F92A984BA84D4
:10498000CB84D72CED84FE840F8518899401A10176
:10499000C801B7010E9497232C892F933B893F932D
:1049A0004A894F9359895F937F928B858F939A851C
:1049B0009F93A985AF933F922F929F928F92A98444
:1049C000BA84CB84ED84FE840F8518899401A101FB
:1049D000B5018C2D972D0E949723BC89BF932B89FD
:1049E0002F933A893F9349894F937F925B855F93D9
:1049F0008A858F9399859F933F922F929F928F9252
:104A0000AD84BE84CF84D888E984FA840B85172DC1
:104A10009401A101B701802F972D0E9497230FB613
:104A2000F894DEBF0FBECDBFBC89BF932B892F93F7
:104A30003A893F9349894F9358895F938F858F9324
:104A40009E859F93AD85AF933F922F929F928F92B9
:104A5000AD84BE84CF84D888E984FA840B85940120
:104A6000A101C601B5010E9497230FB6F894DEBFDD
:104A70000FBECDBF412C512C3201639449825A8222
:104A80006B827C82BE016B5F7F4FCE0101960E94DC
:104A90009E1D29853A854B855C85621B730B840BB3
:104AA000950B3C893F934B894F935A895F93A98912
:104AB000AF93BC85BF932B852F933A853F93498550
:104AC0004F933F922F929F928F925B016C01ED84E6
:104AD000FE840F8518899401A1010E9497235FEF3E
:104AE000651A750A0FB6F894DEBF0FBECDBF41142C
:104AF000510493E06906710409F6412C512C3201EE
:104B0000639449825A826B827C82BE016B5F7F4FC5
:104B1000CE0101960E949E1DDC01CB0129853A85BC
:104B20004B855C85821B930BA40BB50B3C893F9393
:104B30004B894F935A895F9329892F93BF93AF93E2
:104B40009F938F933F922F929F928F92A984BA84C2
:104B5000CB84DC847C018D019401A1016D857E856F
:104B60008F8598890E9497233FEF631A730A0FB6C7
:104B7000F894DEBF0FBECDBF4114510453E065066B
:104B8000710409F0BECF65960FB6F894DEBF0FBE74
:104B9000CDBFDF91CF911F910F91FF90EF90DF90EC
:104BA000CF90BF90AF909F908F907F906F905F90CD
:104BB0004F903F902F9008951F920F920FB60F9233
:104BC00011248F939F938091E1009091E100937F56
:104BD0009093E10083FF0FC01092E90091E0909361
:104BE000EB001092EC0092E39093ED001092A20182
:104BF00098E09093F00082FF22C093E09093E90048
:104C00009091F200992319F09AE39093E800909123
:104C10009301992341F090919301915090939301C6
:104C2000911101C05D9A9091A101992341F0909159
:104C3000A10191509093A101911101C0289A84FF84
:104C400018C08091E2008E7E81608093E2008091A6
:104C5000E1008F7E8093E100809194018E7E8061DF
:104C6000809394019F918F910F900FBE0F901F9092
:104C7000189580FFF7CF8091E2008E7E806180934F
:104C8000E2008091E1008E7E8093E10080919401AA
:104C90008E7E8160E5CF1F920F920FB60F92112486
:104CA000CF92DF92EF92FF920F931F932F933F9338
:104CB0004F935F936F937F938F939F93AF93BF9324
:104CC000EF93FF93CF93DF93CDB7DEB76C97DEBF43
:104CD000CDBF1092E9008091E80083FF25C068E015
:104CE000CE0145960E94DE1C82EF8093E8008D89FC
:104CF00087FF39C09091E80090FFFCCF982F907605
:104D000009F034C19E894F89588D2F89F88C9111F3
:104D100031C0803861F5809192018093F10010924A
:104D2000F1008EEF8093E8006C960FB6F894DEBF2A
:104D30000FBECDBFDF91CF91FF91EF91BF91AF91AA
:104D40009F918F917F916F915F914F913F912F91A3
:104D50001F910F91FF90EF90DF90CF900F900FBEBB
:104D60000F901F9018959EEF9093E800C7CF109278
:104D7000F100D5CF913059F48111D3CF4130510595
:104D800081F6809192018D7F80939201CACF9330FA
:104D900049F48111C6CF4130510519F68091920135
:104DA0008260F2CF953041F48091E80080FFFCCF23
:104DB00020682093E300B5CF963009F0A9C00B8D91
:104DC0001C8D22E01092E9001092900110928F0148
:104DD000F2122EC010928E0110928D010E94AD1C15
:104DE0001F8299E09983FA8291E09E8390EA9887E6
:104DF0009AEF998720918F0130919001275F3F4F63
:104E00003C832B838D831092E900109290011092C5
:104E10008F0110938E0100938D0149E050E0BE0197
:104E20006F5F7F4F80E00E94871C0E94AD1C79CF8E
:104E300010938E0100938D010E94911BDC0112964C
:104E40000D911C910115110509F451C1D801ED9185
:104E5000FC910480F581E02DBE016B5E7F4FC8019F
:104E60000995009709F03EC1F80100851185EACF48
:104E7000F3E0FF120EC08F89882309F440C082300E
:104E800061F440E867E088EC9BE20E94541C8111C9
:104E900048CF81E28093EB0047CF813029F440E88E
:104EA0006BE08CEB9BE2F1CF833099F70E94911B72
:104EB000DC011296ED90FC908E010F5F1F4F680190
:104EC000E114F10479F0D701ED91FC910680F781AE
:104ED000E02DB801C7010995080F111DF701E08405
:104EE000F184EECFD8011C92F60101900020E9F781
:104EF0003197BF016C197D0940E0C601C6CF66EA53
:104F00007BE2FB01449150E080E80E94871C09CFBE
:104F1000973009F4BECF983021F481E08093F100FE
:104F200000CF993009F0FDCE837009F0B2CFE1E4F3
:104F3000F1E081E031E096E32191222371F080934A
:104F4000E9003093EB00DF0111972C912093EC00E6
:104F50009093ED008F5F873079F78EE78093EA00BA
:104F60001092EA008F898093A201DBCE8B8D9C8DFD
:104F70001092E9001092900110928F0190938E018F
:104F800080938D01898D811192C08E899D89913A7E
:104F900049F4813209F07DCF47E050E06CE071E0E8
:104FA00080E0B3CF913209F074CF833269F48F89F6
:104FB000988DB0E0A0E08093080190930901A09340
:104FC0000A01B0930B01ADCE803269F48091E80004
:104FD00082FFFCCF67E08CE091E00E94DE1C8BEF4B
:104FE0008093E8009ECE823209F09BCE8F89809319
:104FF0001301EEEFFFE7859194918B3F9C4D51F1AA
:10500000E0E0F8E080910C0190910D01A0910E017B
:10501000B0910F01803B9440A105B105F1F480915E
:10502000130180FD1AC0EE3F8AE0F80789F587E793
:1050300097E791838083809160008093910188E15C
:105040009BE00FB6F894A895809360000FBE9093F4
:10505000600067CEEEEFFAE0D5CF8081918187378F
:10506000974709F05ECEA895809160008861809393
:1050700060008091910180936000EE3F2AE0F2078A
:1050800089F08091FE0A9091FF0A9183808349CE36
:10509000808191818737980751F29093FF0A80931E
:1050A000FE0AC5CF1092FF0A1092FE0A3ACE0E9465
:1050B000911BDC0112960D911C910115110509F44B
:1050C000E8CED801ED91FC910190F081E02DBE0178
:1050D0006B5E7F4FC8010995811123CEF8010085D1
:1050E0001185EBCF181619060CF41BCED2CEF1E0C9
:1050F000FF12BECE6AEA7BE204CF0F920FB68F9307
:105100009F93EF93FF93809184018D5F8D3708F01B
:105110008D5780938401E5E8F1E080818E4F808394
:1051200091819F4F918382818F4F828383818F4FA3
:105130008383E9E8F1E080818F5F808381818F4FF5
:10514000818382818F4F828383818F4F83838FB14D
:105150008F6066991C9B88278F3681F4809183012C
:10516000981B963068F0E0E0F8E087E78083818361
:1051700088E180936000F0936000FFCF90938301FB
:10518000FF91EF919F918F910FBE0F901895E0ECDA
:10519000F5E01382128288EE93E0A0E0B0E0848311
:1051A0009583A683B78387E591E0918380838FEF12
:1051B0009FEF958784870895CDB7DEB7A697DEBFAA
:1051C000CDBF789483E084BD83E085BD81E080938A
:1051D0006E00E1E8F0E083E08083E0E881E0808336
:1051E000E1E983E08083E0E981E08083E1EC87E02E
:1051F0008083E3EC81E08083E0EC82E08083E2EC7A
:1052000081E08083EAE787E0808380688083109272
:10521000A20110929201109294018091D7008160B6
:105220008093D70080EA8093D80089B5806189BDDA
:1052300089B5826089BD09B400FEFDCF81E090E0B0
:105240000E94EB1C8091D8008F7C80618093D800F5
:105250008091E000807F8093E0008091E1008E7E6D
:105260008093E1008DE08093E200559A209A81ECD2
:1052700080937C0081EF85B987EE84B982E38BB996
:1052800082EF8AB9769A6E9880EF81BB10BA80E57A
:105290008CBD81E08DBD0E94FF1C5F9A0E94FF1CA7
:1052A0005C98EEE7F8E085918EBD00000DB407FE36
:1052B000FDCFEB38C1F75C9A81E88093640081E010
:1052C000809365000E94DF1D87FF15C05C9885EA0A
:1052D0008EBD00000DB407FEFDCF5C9A2E982F986E
:1052E0002D988091640080628093640081E083BF88
:1052F000889513BEFCCF82E090E00E942530882381
:1053000009F44BC03E9A3F9A809164008E7F80934F
:10531000640080917A00806480937A0080917A00A2
:1053200086FDFCCF00917800109179000E94861DC7
:10533000AB01BC01C801B0E0A0E0DC0199278827DF
:105340008C019D01040F151F261F371FC901B801CD
:10535000209164002160209364006115710581052E
:10536000910511F00E941C3081E280930001CC2451
:10537000C394DD24D3949E01275E3F4F3A8F298F3B
:1053800020916C01222361F010926C0180E090E08A
:10539000892BB1F30E940000F3CF3E983F98B4CF21
:1053A0009091850180916D01392F381B832F3091A9
:1053B0000001831738F48F5F831740F7C3BE8895C9
:1053C00013BEE4CFD0926C0190936D01E3EAF1E05B
:1053D00080819181019680839183E0ECF1E021113D
:1053E0002FEF8FEF21932193219321938150D0F7B9
:1053F000109281011092800110927F0110927E0123
:1054000080917D0180937C010E94DF1D80937D014E
:10541000109182011430C0F4123008F0BEC0112384
:1054200009F44BC0113009F484C0E0ECF1E080E0F5
:1054300098E000800EBCC110012C019780FDFDCFCB
:105440000192B9F70DB4A2CF173078F70E94FC1E75
:105450008230910509F4F5C48330910509F4FAC44A
:1054600047E059E0019709F4EEC4153009F4F5C49A
:10547000163009F40EC582E0809305014DE35AE031
:1054800068E270E086E290E00E94C91761E082E085
:105490000E94071920917201309173012F5F3F4FD5
:1054A000C90160E370E00E94BC32892B09F41BC57E
:1054B00030937301209372012EC04EE55AE261E1F0
:1054C00070E080E290E00E94C9178091A301909162
:1054D000A4018F7199278031910530F511E108976A
:1054E00008F01EE147E55AE269E170E08BE590E0E3
:1054F0000E94C917612F70E041E084E390E00E94B0
:10550000F21D10FD08C043E55AE26CE170E08DE247
:1055100090E00E94C91788E00E94E71D882309F4E3
:1055200084CFD092820181CF1FE1499718F310E216
:10553000E1CF41E556E270E060E090E080E00E945B
:10554000C91788E00E94E71D882309F46ECFE5EAB9
:10555000F1E0108211821282138214821582168267
:1055600017821086399680EC91E08E179F0789F795
:1055700010920501109206011092070110927B0112
:1055800082E080938201A4E1B0E0B0937A01A0931D
:1055900079018FEF8093780148CF8090010190903E
:1055A0000201A0900301B0900401BFE0AB1AB10862
:1055B00080917701882309F419C110917601812F18
:1055C000012E000C990BAA0BBB0BDC019927882735
:1055D00089839A83AB83BC83BE016F5F7F4F8CE36B
:1055E00091E00E949E1D40906E0150906F0160906E
:1055F000700170907101460E571E681E791E409210
:105600006E0150926F0160927001709271011116DB
:105610007CF4EFE34E16E4E25E06E3E06E0671040E
:1056200094F0812F81950E94D117109277010BC0C1
:10563000112349F0F2EC4F16FBED5F06FCEF6F060D
:10564000FFEF7F0674F32091140130911501409112
:105650001601509117018501740160E070E081EF3F
:105660009FEF0E9424242091140130911501409154
:10567000160150911701C501B4010E9424248091A4
:10568000010190910201A0910301B09104012C014C
:105690003D01770C4408542C32019C01AD01642D6E
:1056A000742D842D942D01E10E94E13300E10E94CC
:1056B000FA332B8F3C8F4D8F5E8F6F8F78A389A32A
:1056C0009AA36B8D7C8D8D8D9E8D0F9720911401EB
:1056D00030911501409116015091170185010E94EA
:1056E00024248091720190917301099708F052C1AE
:1056F00080E20E94E71D882339F08091070188230A
:1057000019F081508093070180E40E94E71D8823EF
:1057100039F080910701823018F48F5F8093070180
:1057200080E80E94E71D882339F0809106018230CD
:1057300018F48F5F8093060180E10E94E71D8823A3
:1057400039F080910601882319F081508093060179
:105750000E94DF1D83FF09C08091790190917A0139
:10576000019690937A01809379010E94DF1D82FF58
:1057700009C0809172019091730101969093730119
:105780008093720190917C0192FF17C080917D01FE
:1057900082FD13C0209172013091730128303105D0
:1057A00040F4809105018F5F833008F03BC1809306
:1057B0000501109273011092720180918201823072
:1057C00009F433C1833009F481C20E94DF1D83FDD7
:1057D00004C010927A01109279010E94DF1D82FDAF
:1057E00024CE10927301109272011FCE8091750128
:1057F000882309F471C010917401812F012E000CCF
:10580000990BAA0BBB0BDC019927882789839A8304
:10581000AB83BC83BE016F5F7F4F8CE391E00E943E
:105820009E1D40906E0150906F01609070017090CD
:105830007101460E571E681E791E40926E015092ED
:105840006F01609270017092710111167CF40FE18A
:10585000401602E9500601E06006710494F0812FC1
:1058600081950E944618109275010BC0112349F0D2
:1058700022EE42162DE652062EEF62062FEF72063A
:1058800074F360E070E081EF9FEF0E946521C50135
:10589000B4010E9465218091010190910201A091C3
:1058A0000301B09104014C015D01BB0C8808982CE8
:1058B00054019C01AD01682D782D882D982D01E1B2
:1058C0000E94E13300E10E94FA332901CA01B201CA
:1058D0000F970E94652105CF62E0A62EB12C78E2D9
:1058E000E72EF12C01E02DE639E04DE35AE0B70157
:1058F00086E290E00E941D16809105018A151B0426
:10590000C1F58091A3019091A4018F7199274097CF
:1059100080F52091060130E08091070190E0F901C7
:10592000E05BFE4F4081B7016F5F7F4F640F711DD9
:1059300047FD7A95FC01E35BFE4F4081640F711DCA
:1059400047FD7A95865B9E4FDC018C91082E000CFA
:10595000990BC796295B3E4FD901EC910AEF30E0D5
:1059600020E047E459E08E0F911DE7FD9A950E94D3
:105970001D1660E08A2D0E940719B6E1EB1AF108A6
:10598000E1E0AE1AB108F6EEEF16FFEFFF0609F000
:10599000A9CFA7CE80E80E94E71D882361F0D092AE
:1059A0007701D092760110926E0110926F011092E1
:1059B00070011092710180E10E94E71D882369F057
:1059C000D09277018FEF8093760110926E01109242
:1059D0006F01109270011092710180E20E94E71D28
:1059E000882361F0D0927501D092740110926E01FB
:1059F00010926F01109270011092710180E40E9468
:105A0000E71D882309F4A4CED09275018FEF80930F
:105A1000740110926E0110926F0110927001109239
:105A2000710196CE10920501C4CE80917B01811147
:105A300038C093FF2BC080917D0183FD27C08091EA
:105A4000790190917A010A9708F5409105018091BA
:105A50000601282F30E0E0910701C901880F991F46
:105A6000820F931F09E0409F800D911D11248B55DB
:105A70009E4FE80FF92FF11D8081811107C0C08270
:105A8000D0927B0110927A01109279010E94FC1E43
:105A9000892B09F49ACE83E08093820110927801D9
:105AA00094CE712C612C512C92E0392EF12CE12CEA
:105AB00093012B553E4F49012E2C05EA11E01C8F16
:105AC0000B8F8701000F111F0E0D1F1D080D191DD3
:105AD000412CD8018D918D0181110FC0FD013292B1
